{
  "contractName": "ERC721",
  "abi": [
    {
      "inputs": [],
      "payable": false,
      "stateMutability": "nonpayable",
      "type": "constructor"
    },
    {
      "anonymous": false,
      "inputs": [
        {
          "indexed": true,
          "internalType": "address",
          "name": "owner",
          "type": "address"
        },
        {
          "indexed": true,
          "internalType": "address",
          "name": "approved",
          "type": "address"
        },
        {
          "indexed": true,
          "internalType": "uint256",
          "name": "tokenId",
          "type": "uint256"
        }
      ],
      "name": "Approval",
      "type": "event"
    },
    {
      "anonymous": false,
      "inputs": [
        {
          "indexed": true,
          "internalType": "address",
          "name": "owner",
          "type": "address"
        },
        {
          "indexed": true,
          "internalType": "address",
          "name": "operator",
          "type": "address"
        },
        {
          "indexed": false,
          "internalType": "bool",
          "name": "approved",
          "type": "bool"
        }
      ],
      "name": "ApprovalForAll",
      "type": "event"
    },
    {
      "anonymous": false,
      "inputs": [
        {
          "indexed": true,
          "internalType": "address",
          "name": "previousOwner",
          "type": "address"
        },
        {
          "indexed": true,
          "internalType": "address",
          "name": "newOwner",
          "type": "address"
        }
      ],
      "name": "OwnershipTransferred",
      "type": "event"
    },
    {
      "anonymous": false,
      "inputs": [
        {
          "indexed": false,
          "internalType": "address",
          "name": "account",
          "type": "address"
        }
      ],
      "name": "Paused",
      "type": "event"
    },
    {
      "anonymous": false,
      "inputs": [
        {
          "indexed": true,
          "internalType": "address",
          "name": "from",
          "type": "address"
        },
        {
          "indexed": true,
          "internalType": "address",
          "name": "to",
          "type": "address"
        },
        {
          "indexed": true,
          "internalType": "uint256",
          "name": "tokenId",
          "type": "uint256"
        }
      ],
      "name": "Transfer",
      "type": "event"
    },
    {
      "anonymous": false,
      "inputs": [
        {
          "indexed": false,
          "internalType": "address",
          "name": "account",
          "type": "address"
        }
      ],
      "name": "Unpaused",
      "type": "event"
    },
    {
      "constant": true,
      "inputs": [],
      "name": "isOwner",
      "outputs": [
        {
          "internalType": "bool",
          "name": "",
          "type": "bool"
        }
      ],
      "payable": false,
      "stateMutability": "view",
      "type": "function"
    },
    {
      "constant": true,
      "inputs": [],
      "name": "owner",
      "outputs": [
        {
          "internalType": "address",
          "name": "",
          "type": "address"
        }
      ],
      "payable": false,
      "stateMutability": "view",
      "type": "function"
    },
    {
      "constant": false,
      "inputs": [],
      "name": "pause",
      "outputs": [],
      "payable": false,
      "stateMutability": "nonpayable",
      "type": "function"
    },
    {
      "constant": true,
      "inputs": [],
      "name": "paused",
      "outputs": [
        {
          "internalType": "bool",
          "name": "",
          "type": "bool"
        }
      ],
      "payable": false,
      "stateMutability": "view",
      "type": "function"
    },
    {
      "constant": true,
      "inputs": [
        {
          "internalType": "bytes4",
          "name": "interfaceId",
          "type": "bytes4"
        }
      ],
      "name": "supportsInterface",
      "outputs": [
        {
          "internalType": "bool",
          "name": "",
          "type": "bool"
        }
      ],
      "payable": false,
      "stateMutability": "view",
      "type": "function"
    },
    {
      "constant": false,
      "inputs": [
        {
          "internalType": "address",
          "name": "newOwner",
          "type": "address"
        }
      ],
      "name": "transferOwnership",
      "outputs": [],
      "payable": false,
      "stateMutability": "nonpayable",
      "type": "function"
    },
    {
      "constant": false,
      "inputs": [],
      "name": "unpause",
      "outputs": [],
      "payable": false,
      "stateMutability": "nonpayable",
      "type": "function"
    },
    {
      "constant": true,
      "inputs": [
        {
          "internalType": "address",
          "name": "owner",
          "type": "address"
        }
      ],
      "name": "balanceOf",
      "outputs": [
        {
          "internalType": "uint256",
          "name": "",
          "type": "uint256"
        }
      ],
      "payable": false,
      "stateMutability": "view",
      "type": "function"
    },
    {
      "constant": true,
      "inputs": [
        {
          "internalType": "uint256",
          "name": "tokenId",
          "type": "uint256"
        }
      ],
      "name": "ownerOf",
      "outputs": [
        {
          "internalType": "address",
          "name": "",
          "type": "address"
        }
      ],
      "payable": false,
      "stateMutability": "view",
      "type": "function"
    },
    {
      "constant": false,
      "inputs": [
        {
          "internalType": "address",
          "name": "to",
          "type": "address"
        },
        {
          "internalType": "uint256",
          "name": "tokenId",
          "type": "uint256"
        }
      ],
      "name": "approve",
      "outputs": [],
      "payable": false,
      "stateMutability": "nonpayable",
      "type": "function"
    },
    {
      "constant": true,
      "inputs": [
        {
          "internalType": "uint256",
          "name": "tokenId",
          "type": "uint256"
        }
      ],
      "name": "getApproved",
      "outputs": [
        {
          "internalType": "address",
          "name": "",
          "type": "address"
        }
      ],
      "payable": false,
      "stateMutability": "view",
      "type": "function"
    },
    {
      "constant": false,
      "inputs": [
        {
          "internalType": "address",
          "name": "to",
          "type": "address"
        },
        {
          "internalType": "bool",
          "name": "approved",
          "type": "bool"
        }
      ],
      "name": "setApprovalForAll",
      "outputs": [],
      "payable": false,
      "stateMutability": "nonpayable",
      "type": "function"
    },
    {
      "constant": true,
      "inputs": [
        {
          "internalType": "address",
          "name": "owner",
          "type": "address"
        },
        {
          "internalType": "address",
          "name": "operator",
          "type": "address"
        }
      ],
      "name": "isApprovedForAll",
      "outputs": [
        {
          "internalType": "bool",
          "name": "",
          "type": "bool"
        }
      ],
      "payable": false,
      "stateMutability": "view",
      "type": "function"
    },
    {
      "constant": false,
      "inputs": [
        {
          "internalType": "address",
          "name": "from",
          "type": "address"
        },
        {
          "internalType": "address",
          "name": "to",
          "type": "address"
        },
        {
          "internalType": "uint256",
          "name": "tokenId",
          "type": "uint256"
        }
      ],
      "name": "transferFrom",
      "outputs": [],
      "payable": false,
      "stateMutability": "nonpayable",
      "type": "function"
    },
    {
      "constant": false,
      "inputs": [
        {
          "internalType": "address",
          "name": "from",
          "type": "address"
        },
        {
          "internalType": "address",
          "name": "to",
          "type": "address"
        },
        {
          "internalType": "uint256",
          "name": "tokenId",
          "type": "uint256"
        }
      ],
      "name": "safeTransferFrom",
      "outputs": [],
      "payable": false,
      "stateMutability": "nonpayable",
      "type": "function"
    },
    {
      "constant": false,
      "inputs": [
        {
          "internalType": "address",
          "name": "from",
          "type": "address"
        },
        {
          "internalType": "address",
          "name": "to",
          "type": "address"
        },
        {
          "internalType": "uint256",
          "name": "tokenId",
          "type": "uint256"
        },
        {
          "internalType": "bytes",
          "name": "_data",
          "type": "bytes"
        }
      ],
      "name": "safeTransferFrom",
      "outputs": [],
      "payable": false,
      "stateMutability": "nonpayable",
      "type": "function"
    }
  ],
  "bytecode": "0x608060405234801561001057600080fd5b50336000806101000a81548173ffffffffffffffffffffffffffffffffffffffff021916908373ffffffffffffffffffffffffffffffffffffffff1602179055506000809054906101000a900473ffffffffffffffffffffffffffffffffffffffff1673ffffffffffffffffffffffffffffffffffffffff16600073ffffffffffffffffffffffffffffffffffffffff167f8be0079c531659141344cd1fd0a4f28419497f9722a3daafe3b4186f6b6457e060405160405180910390a360008060146101000a81548160ff0219169083151502179055506100fd6301ffc9a760e01b61011860201b60201c565b6101136380ac58cd60e01b61011860201b60201c565b610220565b63ffffffff60e01b817bffffffffffffffffffffffffffffffffffffffffffffffffffffffff191614156101b4576040517f08c379a00000000000000000000000000000000000000000000000000000000081526004018080602001828103825260138152602001807f496e76616c696420696e7465726661636549440000000000000000000000000081525060200191505060405180910390fd5b6001806000837bffffffffffffffffffffffffffffffffffffffffffffffffffffffff19167bffffffffffffffffffffffffffffffffffffffffffffffffffffffff1916815260200190815260200160002060006101000a81548160ff02191690831515021790555050565b611cca80620002306000396000f3fe608060405234801561001057600080fd5b50600436106101005760003560e01c806370a0823111610097578063a22cb46511610066578063a22cb4651461046a578063b88d4fde146104ba578063e985e9c5146105bf578063f2fde38b1461063b57610100565b806370a082311461039c5780638456cb59146103f45780638da5cb5b146103fe5780638f32d59b1461044857610100565b80633f4ba83a116100d35780633f4ba83a1461029457806342842e0e1461029e5780635c975abb1461030c5780636352211e1461032e57610100565b806301ffc9a714610105578063081812fc1461016a578063095ea7b3146101d857806323b872dd14610226575b600080fd5b6101506004803603602081101561011b57600080fd5b8101908080357bffffffffffffffffffffffffffffffffffffffffffffffffffffffff1916906020019092919050505061067f565b604051808215151515815260200191505060405180910390f35b6101966004803603602081101561018057600080fd5b81019080803590602001909291905050506106e7565b604051808273ffffffffffffffffffffffffffffffffffffffff1673ffffffffffffffffffffffffffffffffffffffff16815260200191505060405180910390f35b610224600480360360408110156101ee57600080fd5b81019080803573ffffffffffffffffffffffffffffffffffffffff1690602001909291908035906020019092919050505061079f565b005b6102926004803603606081101561023c57600080fd5b81019080803573ffffffffffffffffffffffffffffffffffffffff169060200190929190803573ffffffffffffffffffffffffffffffffffffffff169060200190929190803590602001909291905050506109b2565b005b61029c610a3e565b005b61030a600480360360608110156102b457600080fd5b81019080803573ffffffffffffffffffffffffffffffffffffffff169060200190929190803573ffffffffffffffffffffffffffffffffffffffff16906020019092919080359060200190929190505050610b9c565b005b610314610bbc565b604051808215151515815260200191505060405180910390f35b61035a6004803603602081101561034457600080fd5b8101908080359060200190929190505050610bd2565b604051808273ffffffffffffffffffffffffffffffffffffffff1673ffffffffffffffffffffffffffffffffffffffff16815260200191505060405180910390f35b6103de600480360360208110156103b257600080fd5b81019080803573ffffffffffffffffffffffffffffffffffffffff169060200190929190505050610cb7565b6040518082815260200191505060405180910390f35b6103fc610da9565b005b610406610f09565b604051808273ffffffffffffffffffffffffffffffffffffffff1673ffffffffffffffffffffffffffffffffffffffff16815260200191505060405180910390f35b610450610f32565b604051808215151515815260200191505060405180910390f35b6104b86004803603604081101561048057600080fd5b81019080803573ffffffffffffffffffffffffffffffffffffffff169060200190929190803515159060200190929190505050610f89565b005b6105bd600480360360808110156104d057600080fd5b81019080803573ffffffffffffffffffffffffffffffffffffffff169060200190929190803573ffffffffffffffffffffffffffffffffffffffff169060200190929190803590602001909291908035906020019064010000000081111561053757600080fd5b82018360208201111561054957600080fd5b8035906020019184600183028401116401000000008311171561056b57600080fd5b91908080601f016020809104026020016040519081016040528093929190818152602001838380828437600081840152601f19601f82011690508083019250505050505050919291929050505061112c565b005b610621600480360360408110156105d557600080fd5b81019080803573ffffffffffffffffffffffffffffffffffffffff169060200190929190803573ffffffffffffffffffffffffffffffffffffffff1690602001909291905050506111bb565b604051808215151515815260200191505060405180910390f35b61067d6004803603602081101561065157600080fd5b81019080803573ffffffffffffffffffffffffffffffffffffffff16906020019092919050505061124f565b005b600060016000837bffffffffffffffffffffffffffffffffffffffffffffffffffffffff19167bffffffffffffffffffffffffffffffffffffffffffffffffffffffff1916815260200190815260200160002060009054906101000a900460ff169050919050565b60006106f2826112b8565b610764576040517f08c379a00000000000000000000000000000000000000000000000000000000081526004018080602001828103825260118152602001807f6e6f6e6578697374656e7420746f6b656e00000000000000000000000000000081525060200191505060405180910390fd5b6003600083815260200190815260200160002060009054906101000a900473ffffffffffffffffffffffffffffffffffffffff169050919050565b60006107aa82610bd2565b90508073ffffffffffffffffffffffffffffffffffffffff168373ffffffffffffffffffffffffffffffffffffffff16141561084e576040517f08c379a000000000000000000000000000000000000000000000000000000000815260040180806020018281038252601d8152602001807f41646472657373206973206f776e6572206f662074686520746f6b656e00000081525060200191505060405180910390fd5b8073ffffffffffffffffffffffffffffffffffffffff163373ffffffffffffffffffffffffffffffffffffffff16148061088e575061088d81336111bb565b5b610900576040517f08c379a00000000000000000000000000000000000000000000000000000000081526004018080602001828103825260188152602001807f43616c6c6572206973206e6f7420617574686f7269736564000000000000000081525060200191505060405180910390fd5b826003600084815260200190815260200160002060006101000a81548173ffffffffffffffffffffffffffffffffffffffff021916908373ffffffffffffffffffffffffffffffffffffffff160217905550818373ffffffffffffffffffffffffffffffffffffffff168273ffffffffffffffffffffffffffffffffffffffff167f8c5be1e5ebec7d5bd14f71427d1e84f3dd0314c0f7b2291e5b200ac8c7c3b92560405160405180910390a4505050565b6109bc338261132a565b610a2e576040517f08c379a00000000000000000000000000000000000000000000000000000000081526004018080602001828103825260178152602001807f4f6e6c79206f776e65722063616e207472616e7366657200000000000000000081525060200191505060405180910390fd5b610a3983838361143b565b505050565b610a46610f32565b610a9b576040517f08c379a0000000000000000000000000000000000000000000000000000000008152600401808060200182810382526021815260200180611c756021913960400191505060405180910390fd5b600060149054906101000a900460ff16610b1d576040517f08c379a00000000000000000000000000000000000000000000000000000000081526004018080602001828103825260198152602001807f436f6e74726163742073686f756c64206265207061757365640000000000000081525060200191505060405180910390fd5b60008060146101000a81548160ff0219169083151502179055507f5db9ee0a495bf2e6ff9c91a7834c1ba4fdd244a5e8aa4e537bd38aeae4b073aa33604051808273ffffffffffffffffffffffffffffffffffffffff1673ffffffffffffffffffffffffffffffffffffffff16815260200191505060405180910390a1565b610bb78383836040518060200160405280600081525061112c565b505050565b60008060149054906101000a900460ff16905090565b6000806002600084815260200190815260200160002060009054906101000a900473ffffffffffffffffffffffffffffffffffffffff169050600073ffffffffffffffffffffffffffffffffffffffff168173ffffffffffffffffffffffffffffffffffffffff161415610cae576040517f08c379a00000000000000000000000000000000000000000000000000000000081526004018080602001828103825260118152602001807f6e6f6e6578697374656e7420746f6b656e00000000000000000000000000000081525060200191505060405180910390fd5b80915050919050565b60008073ffffffffffffffffffffffffffffffffffffffff168273ffffffffffffffffffffffffffffffffffffffff161415610d5b576040517f08c379a00000000000000000000000000000000000000000000000000000000081526004018080602001828103825260128152602001807f4164647265737320697320696e76616c6964000000000000000000000000000081525060200191505060405180910390fd5b610da2600460008473ffffffffffffffffffffffffffffffffffffffff1673ffffffffffffffffffffffffffffffffffffffff1681526020019081526020016000206116d0565b9050919050565b610db1610f32565b610e06576040517f08c379a0000000000000000000000000000000000000000000000000000000008152600401808060200182810382526021815260200180611c756021913960400191505060405180910390fd5b600060149054906101000a900460ff1615610e89576040517f08c379a000000000000000000000000000000000000000000000000000000000815260040180806020018281038252601b8152602001807f436f6e74726163742073686f756c6420626520756e706175736564000000000081525060200191505060405180910390fd5b6001600060146101000a81548160ff0219169083151502179055507f62e78cea01bee320cd4e420270b5ea74000d11b0c9f74754ebdbfc544b05a25833604051808273ffffffffffffffffffffffffffffffffffffffff1673ffffffffffffffffffffffffffffffffffffffff16815260200191505060405180910390a1565b60008060009054906101000a900473ffffffffffffffffffffffffffffffffffffffff16905090565b60008060009054906101000a900473ffffffffffffffffffffffffffffffffffffffff1673ffffffffffffffffffffffffffffffffffffffff163373ffffffffffffffffffffffffffffffffffffffff1614905090565b3373ffffffffffffffffffffffffffffffffffffffff168273ffffffffffffffffffffffffffffffffffffffff16141561102b576040517f08c379a00000000000000000000000000000000000000000000000000000000081526004018080602001828103825260178152602001807f446f6e2774206e65656420746f20736574206f77656e7200000000000000000081525060200191505060405180910390fd5b80600560003373ffffffffffffffffffffffffffffffffffffffff1673ffffffffffffffffffffffffffffffffffffffff16815260200190815260200160002060008473ffffffffffffffffffffffffffffffffffffffff1673ffffffffffffffffffffffffffffffffffffffff16815260200190815260200160002060006101000a81548160ff0219169083151502179055508173ffffffffffffffffffffffffffffffffffffffff163373ffffffffffffffffffffffffffffffffffffffff167f17307eab39ab6107e8899845ad3d59bd9653f200f220920489ca2b5937696c3183604051808215151515815260200191505060405180910390a35050565b6111378484846109b2565b611143848484846116de565b6111b5576040517f08c379a00000000000000000000000000000000000000000000000000000000081526004018080602001828103825260208152602001807f436865636b206f6e455243373231526563656976656420696e7465726661636581525060200191505060405180910390fd5b50505050565b6000600560008473ffffffffffffffffffffffffffffffffffffffff1673ffffffffffffffffffffffffffffffffffffffff16815260200190815260200160002060008373ffffffffffffffffffffffffffffffffffffffff1673ffffffffffffffffffffffffffffffffffffffff16815260200190815260200160002060009054906101000a900460ff16905092915050565b611257610f32565b6112ac576040517f08c379a0000000000000000000000000000000000000000000000000000000008152600401808060200182810382526021815260200180611c756021913960400191505060405180910390fd5b6112b5816118c7565b50565b6000806002600084815260200190815260200160002060009054906101000a900473ffffffffffffffffffffffffffffffffffffffff169050600073ffffffffffffffffffffffffffffffffffffffff168173ffffffffffffffffffffffffffffffffffffffff161415915050919050565b6000611335826112b8565b6113a7576040517f08c379a00000000000000000000000000000000000000000000000000000000081526004018080602001828103825260118152602001807f6e6f6e6578697374656e7420746f6b656e00000000000000000000000000000081525060200191505060405180910390fd5b60006113b283610bd2565b90508073ffffffffffffffffffffffffffffffffffffffff168473ffffffffffffffffffffffffffffffffffffffff16148061142157508373ffffffffffffffffffffffffffffffffffffffff16611409846106e7565b73ffffffffffffffffffffffffffffffffffffffff16145b80611432575061143181856111bb565b5b91505092915050565b8273ffffffffffffffffffffffffffffffffffffffff1661145b82610bd2565b73ffffffffffffffffffffffffffffffffffffffff16146114e4576040517f08c379a000000000000000000000000000000000000000000000000000000000815260040180806020018281038252600f8152602001807f496e636f7272656374206f776e6572000000000000000000000000000000000081525060200191505060405180910390fd5b600073ffffffffffffffffffffffffffffffffffffffff168273ffffffffffffffffffffffffffffffffffffffff161415611587576040517f08c379a00000000000000000000000000000000000000000000000000000000081526004018080602001828103825260178152602001807f4e6f7420616c6c6f77656420746f207472616e7366657200000000000000000081525060200191505060405180910390fd5b61159081611a28565b6115d7600460008573ffffffffffffffffffffffffffffffffffffffff1673ffffffffffffffffffffffffffffffffffffffff168152602001908152602001600020611ae6565b61161e600460008473ffffffffffffffffffffffffffffffffffffffff1673ffffffffffffffffffffffffffffffffffffffff168152602001908152602001600020611b09565b816002600083815260200190815260200160002060006101000a81548173ffffffffffffffffffffffffffffffffffffffff021916908373ffffffffffffffffffffffffffffffffffffffff160217905550808273ffffffffffffffffffffffffffffffffffffffff168473ffffffffffffffffffffffffffffffffffffffff167fddf252ad1be2c89b69c2b068fc378daa952ba7f163c4a11628f55a4df523b3ef60405160405180910390a4505050565b600081600001549050919050565b60006116ff8473ffffffffffffffffffffffffffffffffffffffff16611b1f565b61170c57600190506118bf565b60008473ffffffffffffffffffffffffffffffffffffffff1663150b7a02338887876040518563ffffffff1660e01b8152600401808573ffffffffffffffffffffffffffffffffffffffff1673ffffffffffffffffffffffffffffffffffffffff1681526020018473ffffffffffffffffffffffffffffffffffffffff1673ffffffffffffffffffffffffffffffffffffffff16815260200183815260200180602001828103825283818151815260200191508051906020019080838360005b838110156117e75780820151818401526020810190506117cc565b50505050905090810190601f1680156118145780820380516001836020036101000a031916815260200191505b5095505050505050602060405180830381600087803b15801561183657600080fd5b505af115801561184a573d6000803e3d6000fd5b505050506040513d602081101561186057600080fd5b8101908080519060200190929190505050905063150b7a0260e01b7bffffffffffffffffffffffffffffffffffffffffffffffffffffffff1916817bffffffffffffffffffffffffffffffffffffffffffffffffffffffff1916149150505b949350505050565b600073ffffffffffffffffffffffffffffffffffffffff168173ffffffffffffffffffffffffffffffffffffffff16141561196a576040517f08c379a00000000000000000000000000000000000000000000000000000000081526004018080602001828103825260128152602001807f4164647265737320697320696e76616c6964000000000000000000000000000081525060200191505060405180910390fd5b8073ffffffffffffffffffffffffffffffffffffffff166000809054906101000a900473ffffffffffffffffffffffffffffffffffffffff1673ffffffffffffffffffffffffffffffffffffffff167f8be0079c531659141344cd1fd0a4f28419497f9722a3daafe3b4186f6b6457e060405160405180910390a3806000806101000a81548173ffffffffffffffffffffffffffffffffffffffff021916908373ffffffffffffffffffffffffffffffffffffffff16021790555050565b600073ffffffffffffffffffffffffffffffffffffffff166003600083815260200190815260200160002060009054906101000a900473ffffffffffffffffffffffffffffffffffffffff1673ffffffffffffffffffffffffffffffffffffffff1614611ae35760006003600083815260200190815260200160002060006101000a81548173ffffffffffffffffffffffffffffffffffffffff021916908373ffffffffffffffffffffffffffffffffffffffff1602179055505b50565b611afe60018260000154611b6a90919063ffffffff16565b816000018190555050565b6001816000016000828254019250508190555050565b60008060007fc5d2460186f7233c927e7db2dcc703c0e500b653ca82273b7bfad8045d85a47060001b9050833f9150808214158015611b6157506000801b8214155b92505050919050565b6000611bac83836040518060400160405280601e81526020017f536166654d6174683a207375627472616374696f6e206f766572666c6f770000815250611bb4565b905092915050565b6000838311158290611c61576040517f08c379a00000000000000000000000000000000000000000000000000000000081526004018080602001828103825283818151815260200191508051906020019080838360005b83811015611c26578082015181840152602081019050611c0b565b50505050905090810190601f168015611c535780820380516001836020036101000a031916815260200191505b509250505060405180910390fd5b506000838503905080915050939250505056fe4f776e6572206f66207468697320636f6e74726163742069732072657175696564a265627a7a72315820590d2c5b6f36727b78aaa5007cf19d3f8ced6828e1ce6a04af70e3052afa383364736f6c63430005100032",
  "source": "pragma solidity ^0.5.0;\r\n\r\nimport \"openzeppelin-solidity/contracts/utils/Address.sol\";\r\nimport \"openzeppelin-solidity/contracts/drafts/Counters.sol\";\r\nimport \"openzeppelin-solidity/contracts/math/SafeMath.sol\";\r\nimport \"openzeppelin-solidity/contracts/token/ERC721/IERC721Receiver.sol\";\r\nimport \"./Oraclize.sol\";\r\n\r\ncontract Ownable {\r\n    //  TODO's\r\n    //  1) create a private '_owner' variable of type address with a public getter function\r\n    //  2) create an internal constructor that sets the _owner var to the creater of the contract\r\n    //  3) create an 'onlyOwner' modifier that throws if called by any account other than the owner.\r\n    //  4) fill out the transferOwnership function\r\n    //  5) create an event that emits anytime ownerShip is transfered (including in the constructor)\r\n\r\n    event OwnershipTransferred(\r\n        address indexed previousOwner,\r\n        address indexed newOwner\r\n    );\r\n    address private _owner;\r\n\r\n    constructor() internal {\r\n        _owner = msg.sender;\r\n        emit OwnershipTransferred(address(0), _owner);\r\n    }\r\n\r\n    modifier onlyOwner() {\r\n        require(isOwner(), \"Owner of this contract is requied\");\r\n        _;\r\n    }\r\n\r\n    function owner() public view returns (address) {\r\n        return _owner;\r\n    }\r\n\r\n    function isOwner() public view returns (bool) {\r\n        return msg.sender == _owner;\r\n    }\r\n\r\n    function transferOwnership(address newOwner) public onlyOwner {\r\n        _transferOwnership(newOwner);\r\n    }\r\n\r\n    function _transferOwnership(address newOwner) internal {\r\n        require(newOwner != address(0), \"Address is invalid\");\r\n        emit OwnershipTransferred(_owner, newOwner);\r\n        _owner = newOwner;\r\n    }\r\n}\r\n\r\n//  TODO's: Create a Pausable contract that inherits from the Ownable contract\r\n//  1) create a private '_paused' variable of type bool\r\n//  2) create a public setter using the inherited onlyOwner modifier\r\n//  3) create an internal constructor that sets the _paused variable to false\r\n//  4) create 'whenNotPaused' & 'paused' modifier that throws in the appropriate situation\r\n//  5) create a Paused & Unpaused event that emits the address that triggered the event\r\n\r\ncontract Pausable is Ownable {\r\n    event Paused(address account);\r\n    event Unpaused(address account);\r\n    bool private _paused;\r\n\r\n    constructor() internal {\r\n        _paused = false;\r\n    }\r\n\r\n    function paused() public view returns (bool) {\r\n        return _paused;\r\n    }\r\n\r\n    modifier whenNotPaused() {\r\n        require(!_paused, \"Contract should be unpaused\");\r\n        _;\r\n    }\r\n\r\n    modifier whenPaused() {\r\n        require(_paused, \"Contract should be paused\");\r\n        _;\r\n    }\r\n\r\n    function pause() public onlyOwner whenNotPaused {\r\n        _paused = true;\r\n        emit Paused(msg.sender);\r\n    }\r\n\r\n    function unpause() public onlyOwner whenPaused {\r\n        _paused = false;\r\n        emit Unpaused(msg.sender);\r\n    }\r\n}\r\n\r\ncontract ERC165 {\r\n    bytes4 private constant _INTERFACE_ID_ERC165 = 0x01ffc9a7;\r\n    /*\r\n     * 0x01ffc9a7 ===\r\n     *     bytes4(keccak256('supportsInterface(bytes4)'))\r\n     */\r\n\r\n    /**\r\n     * @dev a mapping of interface id to whether or not it's supported\r\n     */\r\n    mapping(bytes4 => bool) private _supportedInterfaces;\r\n\r\n    /**\r\n     * @dev A contract implementing SupportsInterfaceWithLookup\r\n     * implement ERC165 itself\r\n     */\r\n    constructor() internal {\r\n        _registerInterface(_INTERFACE_ID_ERC165);\r\n    }\r\n\r\n    /**\r\n     * @dev implement supportsInterface(bytes4) using a lookup table\r\n     */\r\n    function supportsInterface(bytes4 interfaceId)\r\n        external\r\n        view\r\n        returns (bool)\r\n    {\r\n        return _supportedInterfaces[interfaceId];\r\n    }\r\n\r\n    /**\r\n     * @dev internal method for registering an interface\r\n     */\r\n    function _registerInterface(bytes4 interfaceId) internal {\r\n        require(interfaceId != 0xffffffff, \"Invalid interfaceID\");\r\n        _supportedInterfaces[interfaceId] = true;\r\n    }\r\n}\r\n\r\ncontract ERC721 is Pausable, ERC165 {\r\n    event Transfer(\r\n        address indexed from,\r\n        address indexed to,\r\n        uint256 indexed tokenId\r\n    );\r\n\r\n    event Approval(\r\n        address indexed owner,\r\n        address indexed approved,\r\n        uint256 indexed tokenId\r\n    );\r\n\r\n    event ApprovalForAll(\r\n        address indexed owner,\r\n        address indexed operator,\r\n        bool approved\r\n    );\r\n\r\n    using SafeMath for uint256;\r\n    using Address for address;\r\n    using Counters for Counters.Counter;\r\n\r\n    // Equals to `bytes4(keccak256(\"onERC721Received(address,address,uint256,bytes)\"))`\r\n    // which can be also obtained as `IERC721Receiver(0).onERC721Received.selector`\r\n    bytes4 private constant _ERC721_RECEIVED = 0x150b7a02;\r\n\r\n    // Mapping from token ID to owner\r\n    mapping(uint256 => address) private _tokenOwner;\r\n\r\n    // Mapping from token ID to approved address\r\n    mapping(uint256 => address) private _tokenApprovals;\r\n\r\n    // Mapping from owner to number of owned token\r\n    // IMPORTANT: this mapping uses Counters lib which is used to protect overflow when incrementing/decrementing a uint\r\n    // use the following functions when interacting with Counters: increment(), decrement(), and current() to get the value\r\n    // see: https://github.com/OpenZeppelin/openzeppelin-solidity/blob/master/contracts/drafts/Counters.sol\r\n    mapping(address => Counters.Counter) private _ownedTokensCount;\r\n\r\n    // Mapping from owner to operator approvals\r\n    mapping(address => mapping(address => bool)) private _operatorApprovals;\r\n\r\n    bytes4 private constant _INTERFACE_ID_ERC721 = 0x80ac58cd;\r\n\r\n    constructor() public {\r\n        // register the supported interfaces to conform to ERC721 via ERC165\r\n        _registerInterface(_INTERFACE_ID_ERC721);\r\n    }\r\n\r\n    function balanceOf(address owner) public view returns (uint256) {\r\n        // TODO return the token balance of given address\r\n        // TIP: remember the functions to use for Counters. you can refresh yourself with the link above\r\n        require(owner != address(0), \"Address is invalid\");\r\n        return _ownedTokensCount[owner].current();\r\n    }\r\n\r\n    function ownerOf(uint256 tokenId) public view returns (address) {\r\n        // TODO return the owner of the given tokenId\r\n        address owner = _tokenOwner[tokenId];\r\n        require(owner != address(0), \"nonexistent token\");\r\n        return owner;\r\n    }\r\n\r\n    //    @dev Approves another address to transfer the given token ID\r\n    function approve(address to, uint256 tokenId) public {\r\n        // TODO require the given address to not be the owner of the tokenId\r\n        address owner = ownerOf(tokenId);\r\n        require(to != owner, \"Address is owner of the token\");\r\n        // TODO require the msg sender to be the owner of the contract or isApprovedForAll() to be true\r\n        require(\r\n            msg.sender == owner || isApprovedForAll(owner, msg.sender),\r\n            \"Caller is not authorised\"\r\n        );\r\n        // TODO add 'to' address to token approvals\r\n        _tokenApprovals[tokenId] = to;\r\n        // TODO emit Approval Event\r\n        emit Approval(owner, to, tokenId);\r\n    }\r\n\r\n    function getApproved(uint256 tokenId) public view returns (address) {\r\n        // TODO return token approval if it exists\r\n        require(_exists(tokenId), \"nonexistent token\");\r\n        return _tokenApprovals[tokenId];\r\n    }\r\n\r\n    /**\r\n     * @dev Sets or unsets the approval of a given operator\r\n     * An operator is allowed to transfer all tokens of the sender on their behalf\r\n     * @param to operator address to set the approval\r\n     * @param approved representing the status of the approval to be set\r\n     */\r\n    function setApprovalForAll(address to, bool approved) public {\r\n        require(to != msg.sender, \"Don't need to set owenr\");\r\n        _operatorApprovals[msg.sender][to] = approved;\r\n        emit ApprovalForAll(msg.sender, to, approved);\r\n    }\r\n\r\n    /**\r\n     * @dev Tells whether an operator is approved by a given owner\r\n     * @param owner owner address which you want to query the approval of\r\n     * @param operator operator address which you want to query the approval of\r\n     * @return bool whether the given operator is approved by the given owner\r\n     */\r\n    function isApprovedForAll(address owner, address operator)\r\n        public\r\n        view\r\n        returns (bool)\r\n    {\r\n        return _operatorApprovals[owner][operator];\r\n    }\r\n\r\n    function transferFrom(\r\n        address from,\r\n        address to,\r\n        uint256 tokenId\r\n    ) public {\r\n        require(\r\n            _isApprovedOrOwner(msg.sender, tokenId),\r\n            \"Only owner can transfer\"\r\n        );\r\n\r\n        _transferFrom(from, to, tokenId);\r\n    }\r\n\r\n    function safeTransferFrom(\r\n        address from,\r\n        address to,\r\n        uint256 tokenId\r\n    ) public {\r\n        safeTransferFrom(from, to, tokenId, \"\");\r\n    }\r\n\r\n    function safeTransferFrom(\r\n        address from,\r\n        address to,\r\n        uint256 tokenId,\r\n        bytes memory _data\r\n    ) public {\r\n        transferFrom(from, to, tokenId);\r\n        require(\r\n            _checkOnERC721Received(from, to, tokenId, _data),\r\n            \"Check onERC721Received interface\"\r\n        );\r\n    }\r\n\r\n    /**\r\n     * @dev Returns whether the specified token exists\r\n     * @param tokenId uint256 ID of the token to query the existence of\r\n     * @return bool whether the token exists\r\n     */\r\n    function _exists(uint256 tokenId) internal view returns (bool) {\r\n        address owner = _tokenOwner[tokenId];\r\n        return owner != address(0);\r\n    }\r\n\r\n    /**\r\n     * @dev Returns whether the given spender can transfer a given token ID\r\n     * @param spender address of the spender to query\r\n     * @param tokenId uint256 ID of the token to be transferred\r\n     * @return bool whether the msg.sender is approved for the given token ID,\r\n     * is an operator of the owner, or is the owner of the token\r\n     */\r\n    function _isApprovedOrOwner(address spender, uint256 tokenId)\r\n        internal\r\n        view\r\n        returns (bool)\r\n    {\r\n        require(_exists(tokenId), \"nonexistent token\");\r\n        address owner = ownerOf(tokenId);\r\n        return (spender == owner ||\r\n            getApproved(tokenId) == spender ||\r\n            isApprovedForAll(owner, spender));\r\n    }\r\n\r\n    // @dev Internal function to mint a new token\r\n    // TIP: remember the functions to use for Counters. you can refresh yourself with the link above\r\n    function _mint(address to, uint256 tokenId) internal {\r\n        // TODO revert if given tokenId already exists or given address is invalid\r\n        require(to != address(0), \"mint to the zero address\");\r\n        require(!_exists(tokenId), \"This token is already exists\");\r\n\r\n        // TODO mint tokenId to given address & increase token count of owner\r\n        _tokenOwner[tokenId] = to;\r\n        _ownedTokensCount[to].increment();\r\n\r\n        // TODO emit Transfer event\r\n        emit Transfer(address(0), to, tokenId);\r\n    }\r\n\r\n    // @dev Internal function to transfer ownership of a given token ID to another address.\r\n    // TIP: remember the functions to use for Counters. you can refresh yourself with the link above\r\n    function _transferFrom(\r\n        address from,\r\n        address to,\r\n        uint256 tokenId\r\n    ) internal {\r\n        // TODO: require from address is the owner of the given token\r\n        require(ownerOf(tokenId) == from, \"Incorrect owner\");\r\n\r\n        // TODO: require token is being transfered to valid address\r\n        require(to != address(0), \"Not allowed to transfer\");\r\n\r\n        // TODO: clear approval\r\n        _clearApproval(tokenId);\r\n\r\n        // TODO: update token counts & transfer ownership of the token ID\r\n        _ownedTokensCount[from].decrement();\r\n        _ownedTokensCount[to].increment();\r\n        _tokenOwner[tokenId] = to;\r\n\r\n        // TODO: emit correct event\r\n        emit Transfer(from, to, tokenId);\r\n    }\r\n\r\n    //Internal function to burn a specific token\r\n    function _burn(address owner, uint256 tokenId) internal {\r\n        require(ownerOf(tokenId) == owner, \"burn the token that is not own\");\r\n        _clearApproval(tokenId);\r\n        _ownedTokensCount[owner].decrement();\r\n        _tokenOwner[tokenId] = address(0);\r\n        emit Transfer(owner, address(0), tokenId);\r\n    }\r\n\r\n    function _burn(uint256 tokenId) internal {\r\n        _burn(ownerOf(tokenId), tokenId);\r\n    }\r\n\r\n    /**\r\n     * @dev Internal function to invoke `onERC721Received` on a target address\r\n     * The call is not executed if the target address is not a contract\r\n     * @param from address representing the previous owner of the given token ID\r\n     * @param to target address that will receive the tokens\r\n     * @param tokenId uint256 ID of the token to be transferred\r\n     * @param _data bytes optional data to send along with the call\r\n     * @return bool whether the call correctly returned the expected magic value\r\n     */\r\n    function _checkOnERC721Received(\r\n        address from,\r\n        address to,\r\n        uint256 tokenId,\r\n        bytes memory _data\r\n    ) internal returns (bool) {\r\n        if (!to.isContract()) {\r\n            return true;\r\n        }\r\n\r\n        bytes4 retval = IERC721Receiver(to).onERC721Received(\r\n            msg.sender,\r\n            from,\r\n            tokenId,\r\n            _data\r\n        );\r\n        return (retval == _ERC721_RECEIVED);\r\n    }\r\n\r\n    // @dev Private function to clear current approval of a given token ID\r\n    function _clearApproval(uint256 tokenId) private {\r\n        if (_tokenApprovals[tokenId] != address(0)) {\r\n            _tokenApprovals[tokenId] = address(0);\r\n        }\r\n    }\r\n}\r\n\r\ncontract ERC721Enumerable is ERC165, ERC721 {\r\n    // Mapping from owner to list of owned token IDs\r\n    mapping(address => uint256[]) private _ownedTokens;\r\n\r\n    // Mapping from token ID to index of the owner tokens list\r\n    mapping(uint256 => uint256) private _ownedTokensIndex;\r\n\r\n    // Array with all token ids, used for enumeration\r\n    uint256[] private _allTokens;\r\n\r\n    // Mapping from token id to position in the allTokens array\r\n    mapping(uint256 => uint256) private _allTokensIndex;\r\n\r\n    bytes4 private constant _INTERFACE_ID_ERC721_ENUMERABLE = 0x780e9d63;\r\n\r\n    /*\r\n     * 0x780e9d63 ===\r\n     *     bytes4(keccak256('totalSupply()')) ^\r\n     *     bytes4(keccak256('tokenOfOwnerByIndex(address,uint256)')) ^\r\n     *     bytes4(keccak256('tokenByIndex(uint256)'))\r\n     */\r\n\r\n    /**\r\n     * @dev Constructor function\r\n     */\r\n    constructor() public {\r\n        // register the supported interface to conform to ERC721Enumerable via ERC165\r\n        _registerInterface(_INTERFACE_ID_ERC721_ENUMERABLE);\r\n    }\r\n\r\n    /**\r\n     * @dev Gets the token ID at a given index of the tokens list of the requested owner\r\n     * @param owner address owning the tokens list to be accessed\r\n     * @param index uint256 representing the index to be accessed of the requested tokens list\r\n     * @return uint256 token ID at the given index of the tokens list owned by the requested address\r\n     */\r\n    function tokenOfOwnerByIndex(address owner, uint256 index)\r\n        public\r\n        view\r\n        returns (uint256)\r\n    {\r\n        require(index < balanceOf(owner), \"Index is bigger than balance\");\r\n        return _ownedTokens[owner][index];\r\n    }\r\n\r\n    /**\r\n     * @dev Gets the total amount of tokens stored by the contract\r\n     * @return uint256 representing the total amount of tokens\r\n     */\r\n    function totalSupply() public view returns (uint256) {\r\n        return _allTokens.length;\r\n    }\r\n\r\n    /**\r\n     * @dev Gets the token ID at a given index of all the tokens in this contract\r\n     * Reverts if the index is greater or equal to the total number of tokens\r\n     * @param index uint256 representing the index to be accessed of the tokens list\r\n     * @return uint256 token ID at the given index of the tokens list\r\n     */\r\n    function tokenByIndex(uint256 index) public view returns (uint256) {\r\n        require(index < totalSupply(), \"Index is bigger than totalSupply\");\r\n        return _allTokens[index];\r\n    }\r\n\r\n    /**\r\n     * @dev Internal function to transfer ownership of a given token ID to another address.\r\n     * As opposed to transferFrom, this imposes no restrictions on msg.sender.\r\n     * @param from current owner of the token\r\n     * @param to address to receive the ownership of the given token ID\r\n     * @param tokenId uint256 ID of the token to be transferred\r\n     */\r\n    function _transferFrom(\r\n        address from,\r\n        address to,\r\n        uint256 tokenId\r\n    ) internal {\r\n        super._transferFrom(from, to, tokenId);\r\n\r\n        _removeTokenFromOwnerEnumeration(from, tokenId);\r\n\r\n        _addTokenToOwnerEnumeration(to, tokenId);\r\n    }\r\n\r\n    /**\r\n     * @dev Internal function to mint a new token\r\n     * Reverts if the given token ID already exists\r\n     * @param to address the beneficiary that will own the minted token\r\n     * @param tokenId uint256 ID of the token to be minted\r\n     */\r\n    function _mint(address to, uint256 tokenId) internal {\r\n        super._mint(to, tokenId);\r\n\r\n        _addTokenToOwnerEnumeration(to, tokenId);\r\n\r\n        _addTokenToAllTokensEnumeration(tokenId);\r\n    }\r\n\r\n    //Internal function to burn a specific token\r\n    function _burn(address owner, uint256 tokenId) internal {\r\n        super._burn(owner, tokenId);\r\n        _removeTokenFromOwnerEnumeration(owner, tokenId);\r\n        _ownedTokensIndex[tokenId] = 0;\r\n        _removeTokenFromAllTokensEnumeration(tokenId);\r\n    }\r\n\r\n    /**\r\n     * @dev Gets the list of token IDs of the requested owner\r\n     * @param owner address owning the tokens\r\n     * @return uint256[] List of token IDs owned by the requested address\r\n     */\r\n    function _tokensOfOwner(address owner)\r\n        internal\r\n        view\r\n        returns (uint256[] storage)\r\n    {\r\n        return _ownedTokens[owner];\r\n    }\r\n\r\n    /**\r\n     * @dev Private function to add a token to this extension's ownership-tracking data structures.\r\n     * @param to address representing the new owner of the given token ID\r\n     * @param tokenId uint256 ID of the token to be added to the tokens list of the given address\r\n     */\r\n    function _addTokenToOwnerEnumeration(address to, uint256 tokenId) private {\r\n        _ownedTokensIndex[tokenId] = _ownedTokens[to].length;\r\n        _ownedTokens[to].push(tokenId);\r\n    }\r\n\r\n    /**\r\n     * @dev Private function to add a token to this extension's token tracking data structures.\r\n     * @param tokenId uint256 ID of the token to be added to the tokens list\r\n     */\r\n    function _addTokenToAllTokensEnumeration(uint256 tokenId) private {\r\n        _allTokensIndex[tokenId] = _allTokens.length;\r\n        _allTokens.push(tokenId);\r\n    }\r\n\r\n    /**\r\n     * @dev Private function to remove a token from this extension's ownership-tracking data structures. Note that\r\n     * while the token is not assigned a new owner, the _ownedTokensIndex mapping is _not_ updated: this allows for\r\n     * gas optimizations e.g. when performing a transfer operation (avoiding double writes).\r\n     * This has O(1) time complexity, but alters the order of the _ownedTokens array.\r\n     * @param from address representing the previous owner of the given token ID\r\n     * @param tokenId uint256 ID of the token to be removed from the tokens list of the given address\r\n     */\r\n    function _removeTokenFromOwnerEnumeration(address from, uint256 tokenId)\r\n        private\r\n    {\r\n        // To prevent a gap in from's tokens array, we store the last token in the index of the token to delete, and\r\n        // then delete the last slot (swap and pop).\r\n\r\n        uint256 lastTokenIndex = _ownedTokens[from].length.sub(1);\r\n        uint256 tokenIndex = _ownedTokensIndex[tokenId];\r\n\r\n        // When the token to delete is the last token, the swap operation is unnecessary\r\n        if (tokenIndex != lastTokenIndex) {\r\n            uint256 lastTokenId = _ownedTokens[from][lastTokenIndex];\r\n\r\n            _ownedTokens[from][tokenIndex] = lastTokenId; // Move the last token to the slot of the to-delete token\r\n            _ownedTokensIndex[lastTokenId] = tokenIndex; // Update the moved token's index\r\n        }\r\n\r\n        // This also deletes the contents at the last position of the array\r\n        _ownedTokens[from].length--;\r\n\r\n        // Note that _ownedTokensIndex[tokenId] hasn't been cleared: it still points to the old slot (now occupied by\r\n        // lastTokenId, or just over the end of the array if the token was the last one).\r\n    }\r\n\r\n    /**\r\n     * @dev Private function to remove a token from this extension's token tracking data structures.\r\n     * This has O(1) time complexity, but alters the order of the _allTokens array.\r\n     * @param tokenId uint256 ID of the token to be removed from the tokens list\r\n     */\r\n    function _removeTokenFromAllTokensEnumeration(uint256 tokenId) private {\r\n        // To prevent a gap in the tokens array, we store the last token in the index of the token to delete, and\r\n        // then delete the last slot (swap and pop).\r\n\r\n        uint256 lastTokenIndex = _allTokens.length.sub(1);\r\n        uint256 tokenIndex = _allTokensIndex[tokenId];\r\n\r\n        // When the token to delete is the last token, the swap operation is unnecessary. However, since this occurs so\r\n        // rarely (when the last minted token is burnt) that we still do the swap here to avoid the gas cost of adding\r\n        // an 'if' statement (like in _removeTokenFromOwnerEnumeration)\r\n        uint256 lastTokenId = _allTokens[lastTokenIndex];\r\n\r\n        _allTokens[tokenIndex] = lastTokenId; // Move the last token to the slot of the to-delete token\r\n        _allTokensIndex[lastTokenId] = tokenIndex; // Update the moved token's index\r\n\r\n        // This also deletes the contents at the last position of the array\r\n        _allTokens.length--;\r\n        _allTokensIndex[tokenId] = 0;\r\n    }\r\n}\r\n\r\ncontract ERC721Metadata is ERC721Enumerable, usingOraclize {\r\n    // TODO: Create private vars for token _name, _symbol, and _baseTokenURI (string)\r\n    string private _name;\r\n    string private _symbol;\r\n    string private _baseTokenURI;\r\n\r\n    // TODO: create private mapping of tokenId's to token uri's called '_tokenURIs'\r\n    mapping(uint256 => string) private _tokenURIs;\r\n\r\n    bytes4 private constant _INTERFACE_ID_ERC721_METADATA = 0x5b5e139f;\r\n\r\n    /*\r\n     * 0x5b5e139f ===\r\n     *     bytes4(keccak256('name()')) ^\r\n     *     bytes4(keccak256('symbol()')) ^\r\n     *     bytes4(keccak256('tokenURI(uint256)'))\r\n     */\r\n\r\n    constructor(\r\n        string memory name,\r\n        string memory symbol,\r\n        string memory baseTokenURI\r\n    ) public {\r\n        // TODO: set instance var values\r\n        _name = name;\r\n        _symbol = symbol;\r\n        _baseTokenURI = baseTokenURI;\r\n\r\n        _registerInterface(_INTERFACE_ID_ERC721_METADATA);\r\n    }\r\n\r\n    // TODO: create external getter functions for name, symbol, and baseTokenURI\r\n    function name() external view returns (string memory) {\r\n        return _name;\r\n    }\r\n\r\n    function symbol() external view returns (string memory) {\r\n        return _symbol;\r\n    }\r\n\r\n    function baseTokenURI() external view returns (string memory) {\r\n        return _baseTokenURI;\r\n    }\r\n\r\n    function tokenURI(uint256 tokenId) external view returns (string memory) {\r\n        require(_exists(tokenId), \"The token doesn't exitst\");\r\n        return _tokenURIs[tokenId];\r\n    }\r\n\r\n    // TODO: Create an internal function to set the tokenURI of a specified tokenId\r\n    // It should be the _baseTokenURI + the tokenId in string form\r\n    // TIP #1: use strConcat() from the imported oraclizeAPI lib to set the complete token URI\r\n    // TIP #2: you can also use uint2str() to convert a uint to a string\r\n    // see https://github.com/oraclize/ethereum-api/blob/master/oraclizeAPI_0.5.sol for strConcat()\r\n    // require the token exists before setting\r\n    function _setTokenURI(uint256 tokenId) internal {\r\n        require(_exists(tokenId), \"This token doesn't exitst\");\r\n        string memory strTokenId = usingOraclize.uint2str(tokenId);\r\n        _tokenURIs[tokenId] = usingOraclize.strConcat(\r\n            _baseTokenURI,\r\n            strTokenId\r\n        );\r\n    }\r\n\r\n    //Internal function to burn a specific token\r\n    function _burn(address owner, uint256 tokenId) internal {\r\n        super._burn(owner, tokenId);\r\n        if (bytes(_tokenURIs[tokenId]).length != 0) {\r\n            delete _tokenURIs[tokenId];\r\n        }\r\n    }\r\n}\r\n\r\n//  TODO's: Create CustomERC721Token contract that inherits from the ERC721Metadata contract. You can name this contract as you please\r\n//  1) Pass in appropriate values for the inherited ERC721Metadata contract\r\n//      - make the base token uri: https://s3-us-west-2.amazonaws.com/udacity-blockchain/capstone/\r\n//  2) create a public mint() that does the following:\r\n//      -can only be executed by the contract owner\r\n//      -takes in a 'to' address, tokenId, and tokenURI as parameters\r\n//      -returns a true boolean upon completion of the function\r\n//      -calls the superclass mint and setTokenURI functions\r\ncontract ERC721Mintable is ERC721Metadata {\r\n    constructor(\r\n        string memory _name,\r\n        string memory _symbol,\r\n        string memory _baseTokenURI\r\n    ) public ERC721Metadata(_name, _symbol, _baseTokenURI) {}\r\n\r\n    function mint(address to, uint256 tokenId) public onlyOwner returns (bool) {\r\n        super._mint(to, tokenId);\r\n        super._setTokenURI(tokenId);\r\n        return true;\r\n    }\r\n}\r\n",
  "sourcePath": "C:\\Users\\g_nan\\OneDrive\\Documents\\UdacityBlockchain\\Blockchain-Capstone\\eth-contracts\\contracts\\ERC721Mintable.sol",
  "compiler": {
    "name": "solc",
    "version": "0.5.16+commit.9c3226ce.Emscripten.clang"
  },
  "schemaVersion": "3.2.0",
  "updatedAt": "2022-03-15T14:19:05.562Z",
  "devdoc": {
    "methods": {
      "isApprovedForAll(address,address)": {
        "details": "Tells whether an operator is approved by a given owner",
        "params": {
          "operator": "operator address which you want to query the approval of",
          "owner": "owner address which you want to query the approval of"
        },
        "return": "bool whether the given operator is approved by the given owner"
      },
      "setApprovalForAll(address,bool)": {
        "details": "Sets or unsets the approval of a given operator An operator is allowed to transfer all tokens of the sender on their behalf",
        "params": {
          "approved": "representing the status of the approval to be set",
          "to": "operator address to set the approval"
        }
      },
      "supportsInterface(bytes4)": {
        "details": "implement supportsInterface(bytes4) using a lookup table"
      }
    }
  },
  "userdoc": {
    "methods": {}
  }
}